:020000040800F2
:100000005049002029030008512A000879200008DF
:100010004D2A0008C9090008293400080000000022
:10002000000000000000000000000000690200085D
:100030008B0B000800000000C502000847300008D4
:100040004303000843030008430300084303000878
:1000500043030008430300088D0B00084303000816
:100060004303000843030008970B000843030008FC
:100070004303000843030008430300084303000848
:100080004303000843030008430300084303000838
:10009000430300084303000843030008A10B0008C2
:1000A0004303000843030008430300084303000818
:1000B0004303000843030008430300084303000808
:1000C00043030008430300084303000843030008F8
:1000D00043030008430300084303000843030008E8
:1000E00043030008430300084303000843030008D8
:1000F00043030008430300084303000843030008C8
:1001000043030008430300084303000843030008B7
:1001100043030008430300084303000843030008A7
:100120004303000843030008CD0900089D0A0008A6
:100130004303000843030008430300084303000887
:100140004303000843030008430300084303000877
:100150004303000843030008430300084303000867
:100160004303000843030008430300084303000857
:100170004303000843030008430300080000000095
:10018000430300084303000800F002F800F05CF8A5
:100190000AA090E8000C82448344AAF10107DA45E2
:1001A00001D100F051F8AFF2090EBAE80F0013F0D8
:1001B000010F18BFFB1A43F0010318476C5B0000E6
:1001C0008C5B00000A444FF0000C10F8013B13F068
:1001D000070408BF10F8014B1D1108BF10F8015BA0
:1001E000641E05D010F8016B641E01F8016BF9D193
:1001F00013F0080F1EBF10F8014BAD1C0C1B09D1EA
:100200006D1E58BF01F801CBFAD505E014F8016B5B
:1002100001F8016B6D1EF9D59142D6D370470000ED
:100220000023002400250026103A28BF78C1FBD8FF
:10023000520728BF30C148BF0B6070471FB505F09B
:100240001EFD1FBD10B510BD00F094F91146FFF75B
:10025000F5FF04F065F800F0B2F903B4FFF7F2FF20
:1002600003BC00F0B5F900002C4B19680868B0E831
:10027000F04F80F30988BFF36F8F4FF0000080F3D9
:10028000118870470000000008480068006880F38B
:1002900008884FF0000080F3148862B661B6BFF39F
:1002A0004F8FBFF36F8F00DF00BF00BF08ED00E08E
:1002B000DFF80C00016841F470010160704700BF75
:1002C00088ED00E0EFF30980BFF36F8F134B1A68DE
:1002D0001EF0100F08BF20ED108A20E9F04F1060CB
:1002E00009B44FF0500080F31188BFF34F8FBFF374
:1002F0006F8F04F067FE4FF0000080F3118809BC97
:1003000019680868B0E8F04F1EF0100F08BFB0EC95
:10031000108A80F30988BFF36F8F7047F0000020C8
:10032000EFF30580704700000948804709480047FF
:10033000FEE7FEE7FEE7FEE7FEE7FEE7FEE7FEE795
:10034000FEE7FEE704480549054A064B70470000F2
:100350001131000889010008504300205049002055
:10036000504500205045002053EA020C00F06980FF
:100370002DE9F04B4FF00006002B1FBFB3FA83F5B9
:1003800003FA05F424FA05F65E4012BF1643B2FAEA
:1003900082F502FA05F4C5F120051EBF22FA05FC1C
:1003A00044EA0C04203556EA044C4FEA144418BFC2
:1003B000641C4FF000084FF00009904271EB030CF1
:1003C00039D3002919BFB1FA81F701FA07F6B0FA5B
:1003D00080F700FA07F6C7F120071EBF20FA07FCD6
:1003E00046EA0C062037B6FBF4FCA7EB0507103FE6
:1003F00007F01F0BCBF120060CFA0BFB2CFA06F6CC
:1004000044BFB3460026202FA4BF5E464FF0000B2A
:100410005BEA060C08BF4FF0010B19EB0B09ABFBB5
:10042000027C48EB0608C01B06FB02CC0BFB03CC8E
:1004300071EB0C01C1E70B46024641464846BDE858
:10044000F08B13B54FF000004FF00001AFF30080C8
:10045000BDE81C40704710B5431C02E010F8011BBA
:1004600071B18107FAD14FF0013202C88C1A8C4366
:1004700014EAC211F9D0C01A0A0603D0C01E10BD7A
:10048000C01A10BD0A0401D0801E10BD0902FCD0A4
:10049000401E10BD10B5203AC0F00B80B1E81850D6
:1004A000203AA0E81850B1E81850A0E81850BFF45E
:1004B000F5AF5FEA027C24BFB1E81850A0E81850FD
:1004C00044BF18C918C0BDE810405FEA827C24BF51
:1004D00051F8043B40F8043B08BF7047D20728BFDF
:1004E00031F8023B48BF11F8012B28BF20F8023B2E
:1004F00048BF00F8012B70474FF0000200B51346CB
:1005000094469646203922BFA0E80C50A0E80C5033
:10051000B1F12001BFF4F7AF090728BFA0E80C50E4
:1005200048BF0CC05DF804EB890028BF40F8042BDD
:1005300008BF704748BF20F8022B11F0804F18BF4A
:1005400000F8012B704770477047704710B500F0F6
:1005500009F8006810BD10B5044600F003F8046007
:1005600010BD000000487047EC4200200048704772
:10057000EC4200207546FFF7F9FFAE4605006946DC
:10058000534620F00700854618B020B5FFF7DAFE85
:10059000BDE820404FF000064FF000074FF0000884
:1005A0004FF0000B21F00701AC46ACE8C009ACE805
:1005B000C009ACE8C009ACE8C0098D46704710B569
:1005C0000446AFF300802046BDE81040FFF745BE6B
:1005D00001491820ABBEFEE726000200704700006C
:1005E000B7EE000A80ED000A9FED060A80ED010AD1
:1005F0009FED040A80ED020A9FED020A80ED030AD6
:10060000704700000000000010B5012210210248D0
:1006100000F0BAFD10BD00000000024010B500223D
:100620001021024800F0B0FD10BD000000000240A3
:100630007047000010B501221146024800F0A4FDE9
:1006400010BD00000004024010B500220121024844
:1006500000F09AFD10BD00000004024010B5437880
:100660001B021BB20478234300EE103AB8EEC01A06
:100670001C4BD3ED001A21EE211A81ED001AC3782C
:100680001B021BB28478234300EE103AB8EEC01A66
:10069000144BD3ED001A21EE211A81ED011A437992
:1006A0001B021BB20479234300EE103AB8EEC01AC5
:1006B0000C4BD3ED001A21EE211A81ED021A037AB8
:1006C0001B04C47943EA04238479234300EE903A5F
:1006D000B8EE601ADFED041A21EE211A82ED001A3D
:1006E00010BD00000000002000401C42704710B503
:1006F0000446204603F035FE10BD10B504462046E2
:1007000003F0B0FB10BD00004278120212B2037871
:100710001A4300EE102AF8EEC00A144A92ED001AAD
:1007200060EE810AC1ED000AC278120212B283782B
:100730001A4300EE102AF8EEC00A0C4A92ED001A95
:1007400060EE810AC1ED010A4279120212B2037908
:100750001A4300EE102AF8EEC00A044A92ED001A7D
:1007600060EE810AC1ED020A70470000040000201B
:1007700010B50024FFF75CFFFFF7B8FF03F0F4F8B3
:1007800010B144F0800402E003F054F8044303F095
:10079000E9FA10B144F0400402E003F069FA0443BE
:1007A000204610BD2DE9FC4105460E4617460020A7
:1007B00000900190FFF732FF922000F0D1F806225E
:1007C0006946122000F0ACF8FFF71EFF9DF801000B
:1007D000000200B29DF8001040EA010400EE104A49
:1007E000B8EEC00A4C48D0ED000A20EE200A86ED93
:1007F000000A9DF80300000200B29DF8021040EAD2
:10080000010400EE104AB8EEC00A4348D0ED000AD9
:1008100020EE200A86ED010A9DF80500000200B2D4
:100820009DF8041040EA010400EE104AB8EEC00A38
:100830003948D0ED000A20EE200A86ED020AFFF7C3
:1008400003FF08226946002000F06AF8FFF7F2FE75
:100850009DF800000F2838D19DF80300000200B277
:100860009DF8021040EA010400EE104AB8EEC00AFA
:100870002A48D0ED000A20EE200A85ED000A9DF8F6
:100880000500000200B29DF8041040EA010400EEE9
:10089000104AB8EEC00A2148D0ED000A20EE200A26
:1008A00085ED010A9DF80700000200B29DF80610D0
:1008B00040EA010400EE104AB8EEC00A1748D0ED35
:1008C000000A20EE200A85ED020AFFF7A7FEA2200B
:1008D00000F046F802226946222000F021F8FFF7D6
:1008E00093FE9DF80000C0009DF8011040EA6114DD
:1008F000B4F5806F02DBA4F5006004B200EE104A8C
:10090000F8EEC00AB4EE001AB3EE070A00EE810A50
:1009100087ED000ABDE8FC810000002004000020F3
:1009200070B506460C46154646F0800000F018F8F3
:1009300006E0552000F014F82070641C681EC5B253
:10094000002DF6D170BD70B504460D4644F0800010
:1009500000F006F8552000F003F8287070BD000084
:1009600001B582B04FF47A70012301AA02A9009068
:10097000024801F01FF99DF804000EBDA4040020F8
:1009800010B502461378DB00547843EA6410B0F5E2
:10099000806F02DBA0F5006318B200EE100AF8EEDB
:1009A000C00AB4EE001AB3EE070A00EE810A81ED28
:1009B000000A10BD70B505460C462846FFF7D0FF6B
:1009C0002046FFF7CDFF70BD00BFFEE710B52C48F5
:1009D000006800F40010002850D04FF0F46028495F
:1009E000083108602748007800F0020078B12548F7
:1009F000007820F00200234908700846007840F093
:100A000004000870012211461F4800F0BDFB1F487A
:100A1000007800F0020078B11C48007820F0020055
:100A20001A4908700846007840F004000870012256
:100A30001021174800F0A8FB1648007800F00200CB
:100A400078B11448007820F0020012490870084676
:100A5000007840F004000870012210210C4800F0DA
:100A600093FB03F033FB0748007800F0040028B143
:100A70000948006840F001000749086010BD000007
:100A8000006402405500002000040240560000208F
:100A90000000024057000020103C014010B5024801
:100AA00000F086F810BD00005C05002001460878C3
:100AB00010381823B0FBF3F20848805CC865032A9D
:100AC00005D908686FF30900001D886503E0086810
:100AD0006FF309008865886D70470000F45C0008BA
:100AE000014600208A6A8B69CBB932B1012A0DD048
:100AF000022A03D0032A10D10EE000BFCB6A03F014
:100B00008073B3F1807F00D1012007E0CB6AB3F19D
:100B1000C07F00D1012001E000E000BF34E08B691C
:100B2000B3F5005F1AD132B1012A07D0022A03D0EF
:100B3000032A11D10AE000BF01200EE0CB6A03F0C6
:100B40008073B3F1807F00D1012006E0CB6AB3F15E
:100B5000C07F00D1012000E000BF15E032B1012AC2
:100B600005D0022A04D0032A0CD103E000BF00BF45
:100B7000012008E0CB6A03F08073B3F1807F00D1DD
:100B8000012000E000BF00BF7047704710B5012092
:100B900000F0ECF910BD10B5102000F0E7F910BD21
:100BA00010B5202000F0E2F910BD72B600BFFEE7DC
:100BB000F8B50446002000908C4800684FF41651A8
:100BC000B0FBF1F7A56D2E6894F85C100820884002
:100BD000304098B12068006800F0040070B12068CF
:100BE000006820F004002168086094F85C10082078
:100BF0008840A860606D40F00100606594F85C106A
:100C000001208840304068B12068406900F08000D1
:100C100040B194F85C1001208840A860606D40F0FD
:100C20000200606594F85C1004208840304068B190
:100C30002068006800F0020040B194F85C100420C5
:100C40008840A860606D40F00400606594F85C1016
:100C500010208840304078B32068006800F0080019
:100C600050B394F85C1010208840A8602068006899
:100C700000F4802080B12068006800F4002028B9CA
:100C8000206CC8B12046216C884715E0A06C98B153
:100C90002046A16C88470FE02068006800F480704F
:100CA00028B92068006820F0080021680860206CDE
:100CB00010B12046216C884794F85C1020208840B1
:100CC0003040002865D02068006800F0100000283F
:100CD0005FD094F85C1020208840A86094F835001C
:100CE000052828D12068006820F0160021680860D7
:100CF0002068406920F0800021684861206C08B9B4
:100D0000A06C28B12068006820F008002168086005
:100D100094F85C103F208840A86000BF002084F851
:100D2000340000BF012084F83500206D10B120464A
:100D3000216D8847F8BD2068006800F4802080B1EC
:100D40002068006800F4002028B9606C10B12046CB
:100D5000616C88471DE0E06BD8B12046E16B8847A5
:100D600017E02068006800F4807068B920680068A7
:100D700020F010002168086000BF002084F83400D3
:100D800000BF012084F83500E06B10B12046E16B14
:100D90008847606D38B3606D00F00100F0B1052048
:100DA00084F835002068006820F0010021680860A0
:100DB00000BF0098401C0090B84200D905E02068B0
:100DC000006800F001000028F3D100BF00BF002040
:100DD00084F8340000BF012084F83500E06C10B1C5
:100DE0002046E16C884700BFA4E70000EC0000202B
:100DF0002DE9F0410446002500F0CCF9074614B96E
:100E00000120BDE8F081606A00B100BF00BF002092
:100E100084F8340000BF022084F8350020680068A0
:100E200020F00100216808600AE000F0B3F9C01B5F
:100E3000052805D920206065032084F83500E0E707
:100E40002068006800F001000028EED120680568E5
:100E500021480540D4E901010843E16808432169BC
:100E6000084361690843A1690843E1690843216AAD
:100E700008430543606A042803D1D4E90B01084301
:100E80000543206805602068456925F00705606A0C
:100E90000543606A04280DD1A06A0543E06A48B1A1
:100EA0002046FFF71DFE28B140206065012084F830
:100EB0003500A6E7206845612046FFF7F7FD0646A6
:100EC00094F85C103F208840B060002060650120ED
:100ED00084F83500002094E73F8010F010B50446F8
:100EE000102C11D11A48007840F001001849087000
:100EF0001848007840F0010016490870164800783C
:100F000028B303F0E3F822E0202C0BD1134800783B
:100F100040F00100114908700F480078B8B103F0A3
:100F2000D5F814E0012C12D104F040FA01280ED0BB
:100F30000B490C48006803F06DFF0948006830B1A8
:100F4000200709490860BFF34F8FBFF36F8F10BDB3
:100F500056000020570000205800002055000020B7
:100F6000CC0000203000002004ED00E010B5044665
:100F700004480068204020B1024804602046FFF782
:100F8000ADFF10BD143C0140F8B502460B460025EC
:100F9000002400200021DCE0012606FA01F51E688D
:100FA00006EA0504AC4273D15E68022E02D05E6888
:100FB000122E13D1CF0802F1200656F827004E0753
:100FC000F70E0F26BE40B0434F07FF0E1E69BE400E
:100FD0003043CF0802F1200646F8270010684F0082
:100FE0000326BE40B0431E7906F003064F00BE4004
:100FF000304310605E68012E08D05E68022E05D076
:101000005E68112E02D05E68122E13D190684F00D8
:101010000326BE40B0434F00DE68BE4030439060C0
:10102000506801268E40B0431E79C6F300168E40EC
:1010300030435060D0684F000326BE40B0434F009D
:101040009E68BE403043D0605E6806F08056B6F1C0
:10105000805F7DD100BF00260096404E366846F482
:1010600080463E4F3E603E46366806F48046009617
:1010700000BF00BF3A4E8F0856F827008E07370F83
:101080000F26BE40B043374EB24202D1002624E0C4
:101090005EE0354EB24201D101261EE0334EB2422F
:1010A00001D1022619E0324EB24201D1032614E0EA
:1010B000304EB24201D104260FE02F4EB24201D190
:1010C00005260AE02D4EB24201D1062605E02C4E3F
:1010D000B24201D1072600E008268F073F0FBE402D
:1010E00030431F4E8F0846F82700264E3068A04335
:1010F0005E6806F48036B6F5803F00D12043214E6D
:101100003060361D3068A0435E6806F40036B6F5E0
:10111000003F00D120431B4E361D3060361D306825
:10112000A0435E6806F48016B6F5801F00D1204308
:10113000144E08363060361D3068A0435E6806F4F1
:101140000016B6F5001F00D120430E4E0C3630605D
:10115000491C1029FFF420AFF8BD000044380240BC
:10116000083801400000024000040240000802402C
:10117000000C02400010024000140240001802401F
:10118000001C0240003C01400AB1816101E00B04F7
:10119000836170470148006870470000E00000204C
:1011A000034800680349097808440149086070470A
:1011B000E0000020E800002010B50D48006840F471
:1011C00000700B4908600846006840F480600860C1
:1011D0000846006840F480700860032000F0A8F81A
:1011E0000F2000F007F800F02BF8002010BD0000E1
:1011F000003C024070B504460E4800784FF47A7106
:10120000B1FBF0F00C490968B1FBF0F5284600F09D
:10121000E6FD08B1012070BD102C07D20022214646
:10122000501E00F047F80548046001E00120F2E795
:101230000020F0E7E8000020EC000020E40000209F
:1012400008B500BF002000901148006840F48040BD
:101250000F4908600846006800F48040009000BF15
:1012600000BF00BF00200090081F006840F08050C1
:10127000091F08600846006800F08050009000BF19
:1012800000BF00220F21901E00F014F808BD0000DE
:101290004438024001460846002809DB00F01F03DD
:1012A00001229A4043099B0003F1E023C3F8002187
:1012B00000BF70472DE9F05F80460D4616460027B7
:1012C00002F0C8F8074639462A46334601F00700BF
:1012D000C0F1070ABAF1040F02D94FF0040A01E085
:1012E000C0F1070AD14600F1040ABAF1070F02D291
:1012F0004FF0000A01E0A0F1030AD4464FF0010AC2
:101300000AFA09FAAAF1010A0AEA020A0AFA0CFA26
:101310004FF0010B0BFA0CFBABF1010B0BEA030BCB
:101320004AEA0B042146404602F09CF8BDE8F09FD3
:1013300000BF00F00702064B19684FF6FF03194083
:10134000044B0B4343EA0221014B196000BF704775
:101350000CED00E00000FA0570B504460D460CB92E
:10136000012070BD5848006800F00F00A84209D263
:1013700055490D700846006800F00F00A84201D0E2
:101380000120EEE7207800F0020002281DD120782D
:1013900000F00400042805D14C48006840F4E050F7
:1013A0004A490860207800F00800082805D147481D
:1013B000006840F46040454908604448006820F0F7
:1013C000F000A168084341490860207800F001005E
:1013D000A8B36068012807D13C4808380068C0F30A
:1013E0004040B8B90120BCE76068022802D06068BC
:1013F000032807D1354808380068C0F3406048B971
:101400000120AEE7314808380068C0F3400008B951
:101410000120A6E72D48006820F00300616808431A
:101420002A490860FFF7B6FE064609E0FFF7B2FE5C
:10143000801B41F28831884202D9032091E707E0FE
:101440002248006800F00C006168B0EB810FEDD11C
:101450001D48006800F00F00A84209D91A490D7014
:101460000846006800F00F00A84201D0012078E78C
:10147000207800F00400042807D11448006820F404
:10148000E050E168084311490860207800F0080046
:10149000082808D10D48006820F46040216940EA1E
:1014A000C1000A49086000F017F808490968C1F34B
:1014B0000311074A515CC840064908600F20FFF736
:1014C00099FE00204DE70000003C02400838024031
:1014D000FC5C0008EC0000202DE9F047002400250A
:1014E0000026A1462548006800F00C0020B1042821
:1014F00005D008283AD105E0DFF8849039E0DFF81C
:10150000849036E01D48001F006800F03F041B482F
:10151000001F006800F4800078B11A481749091FBD
:101520000968C1F38811A0FB01700146224600231F
:101530003846FEF719FF05460EE011480F49091F0E
:101540000968C1F38811A0FB0170014622460023FF
:101550003846FEF709FF05460848001F0068C0F33B
:101560000140401C4600B5FBF6F902E0DFF81090A0
:1015700000BF00BF4846BDE8F087000008380240C1
:101580000024F40040787D01F8B504460CB9012030
:10159000F8BD207800F00100002874D0F9480068F8
:1015A00000F00C0004280DD0F648006800F00C0094
:1015B000082813D1F348001F006800F48000B0F53C
:1015C000800F0BD1EF4808380068C0F34040002876
:1015D00059D06068002856D10120D9E700BF606863
:1015E000B0F5803F08D1E7480838006840F4803003
:1015F000E449083908601EE06068B0F5A02F0DD1FD
:10160000E0480838006840F48020DE490839086066
:101610000846006840F4803008600CE0D94808387B
:10162000006820F48030D74908390860084600680F
:1016300020F48020086000BF606890B1FFF7AAFD29
:10164000054606E0FFF7A6FD401B642801D90320EC
:101650009EE7CC4808380068C0F340400028F1D02D
:1016600011E0FFF797FD054606E0FFF793FD401BED
:10167000642801D903208BE7C24808380068C0F30A
:1016800040400028F1D1207800F0020002285FD10C
:10169000BC48006800F00C0058B1BA48006800F07F
:1016A0000C0008281CD1B748001F006800F4800017
:1016B000B0B9B44808380068C0F3400020B1E06811
:1016C000012801D0012063E7AE480838006820F007
:1016D000F800216940EAC100AA490839086037E0EA
:1016E000E06800B30120A8490860FFF753FD0546F4
:1016F00006E0FFF74FFD401B022801D9032047E712
:10170000A04808380068C0F340000028F1D09D4888
:101710000838006820F0F800216940EAC1009949C2
:101720000839086014E0002097490860FFF732FD8F
:10173000054606E0FFF72EFD401B022801D90320D5
:1017400026E7904808380068C0F340000028F1D12F
:10175000207800F0080008282CD16069A8B1012089
:101760008A490860FFF716FD054606E0FFF712FDFF
:10177000401B022801D903200AE782486C30006828
:10178000C0F340000028F1D014E000207F49086039
:10179000FFF700FD054606E0FFF7FCFC401B0228B2
:1017A00001D90320F4E677486C300068C0F34000AC
:1017B0000028F1D1207800F00400042870D1002620
:1017C00070483830006800F0805090B900BF0020A9
:1017D00000906C483830006840F0805069493831DA
:1017E00008600846006800F08050009000BF00BF0D
:1017F00001266748006800F48070B0B9644800684A
:1018000040F4807062490860FFF7C4FC054606E0BA
:10181000FFF7C0FC401B022801D90320B8E65C4852
:10182000006800F480700028F2D000BFA068012892
:1018300008D154486830006840F0010051496831CF
:1018400008601DE0A06805280DD14E48683000688A
:1018500040F004004B49683108600846006840F0D9
:10186000010008600CE047486830006820F0010083
:101870004449683108600846006820F004000860A8
:1018800000BFA068A8B1FFF785FC054609E0FFF797
:1018900081FC401B41F28831884202D9032077E65F
:1018A00026E0384868300068C0F340000028EED0D9
:1018B00013E0FFF76FFC054608E0FFF76BFC401BE9
:1018C00041F28831884201D9032061E62D48683011
:1018D0000068C0F340000028EFD1012E07D129484D
:1018E0003830006820F0805026493831086000BF49
:1018F000A069B8B32348006800F00C0008285ED047
:10190000A069022846D100201F490866FFF742FC63
:10191000054606E0FFF73EFC401B022801D90320E4
:1019200036E6184808380068C0F340600028F1D156
:10193000D4E907010843616A40EA81110122A06AE3
:10194000C2EB500041EA00412C20005D41EA0060FA
:101950000C49091F086001200B490866FFF71AFCB3
:10196000054607E02DE0FFF715FC401B022801D9D2
:1019700003200DE6034808380068C0F340600028E3
:10198000F1D01EE00838024000004742800E474276
:101990000070004000200C490866FFF7FBFB05467D
:1019A00006E0FFF7F7FB401B022801D90320EFE513
:1019B00006480068C0F340600028F2D101E0012031
:1019C000E6E50020E4E50000000047420038024060
:1019D00010B504460CB9012010BD606A00B900BF03
:1019E0000021A16294F8510028B9002084F8500029
:1019F000204600F033F8022084F851002068006887
:101A000020F0400021680860D4E901010843E16842
:101A100008432169084361690843218B01F400717F
:101A20000843E1690843216A0843A16A0843216821
:101A300008600421A06901EA1040616A0843216836
:101A400048602068C06920F400602168C8610020F7
:101A50006065012084F851000020BDE710B586B014
:101A60000446142101A8FEF747FD4B49206888422F
:101A70007ED100BF002000904848006840F48050AC
:101A8000464908600846006800F48050009000BF96
:101A900000BF00BF0020009040481438006840F0AC
:101AA00002003E49143908600846006800F0020050
:101AB000009000BF00BF00BF0020009008460068F3
:101AC00040F0010008600846006800F00100009046
:101AD00000BF00BF18200190022002900120039057
:101AE000032004900520059001A92D48FFF74CFA2A
:101AF0008020019002200290012003900320049096
:101B00000520059001A92748FFF73EFA26482749F6
:101B100008604FF0C0604860002124488160C160C7
:101B20004FF480610161002141618161C1614FF425
:101B30004031016200214162FFF75AF908B1FFF715
:101B400034F800BF1948E064846300BF16481830B9
:101B5000174908604FF0C060486040211448816018
:101B60000021C1604FF4806101610021416100E00A
:101B700010E08161C1614FF40031016200214162D6
:101B8000FFF736F908B1FFF710F800BF0848A06466
:101B9000846300BF06B010BD0030014044380240ED
:101BA000000402400000024040640240FC040020A7
:101BB0005C0500202DE9FF5F0446884691461D46DE
:101BC0000E9E012002900020019000BF94F850006A
:101BD000012803D1022004B0BDE8F09F012084F861
:101BE000500000BFFFF7D6FA074694F851B060687E
:101BF0000390AA46BBF1010F0BD00398B0F5827F8A
:101C000004D1A06810B9BBF1040F02D002200190EA
:101C1000DBE0B8F1000F03D0B9F1000F00D015B927
:101C200001200190D1E094F85100042802D0052051
:101C300084F8510000206065C4F83890E587A587D6
:101C4000C4F83080E586A58620646064206800685A
:101C500000F04000402805D02068006840F04000B7
:101C600021680860E068B0F5006F4AD1606810B183
:101C7000BAF1010F09D1206B00882168C860206B80
:101C8000801C2063E08E401EE08633E02068806880
:101C900000F00200022810D1E08E70B102980128F5
:101CA0000BD1206B00882168C860206B801C2063EA
:101CB000E08E401EE086002002902068806800F0E0
:101CC000010068B1E08F58B12068C068A16B08803E
:101CD000A06B801CA063E08F401EE0870120029073
:101CE000FFF758FAC01BB04204D3701C10B1032098
:101CF00001906AE0E08E0028C8D1E08F0028C5D1AD
:101D00004AE0606810B1BAF1010F09D1206B007888
:101D100021680873206B401C2063E08E401EE08623
:101D200034E02068806800F00200022810D1E08EC4
:101D300070B1029801280BD1206B007821680873DC
:101D4000206B401C2063E08E401EE0860020029045
:101D50002068806800F0010068B1E08F58B1206809
:101D6000C068A16B0870A06B401CA063E08F401E90
:101D7000E08701200290FFF70DFAC01BB04201D3AB
:101D8000701C00B916B9032001901EE0E08E0028F7
:101D9000C7D1E08F0028C4D13A463146204601F031
:101DA000E5F820B101200190202060650DE0A068D9
:101DB00050B900BF002000902068C06800902068E3
:101DC0008068009000BF00BF00BF012084F8510070
:101DD00000BF002084F8500000BF0198FBE670B5FA
:101DE00004462546681EB0F1807F01D301200FE034
:101DF000681E4FF0E02148610F214FF0FF3001F0E5
:101E000031FB00204FF0E0218861072008610020AD
:101E100070BD10B504460CB9012010BD94F83D000A
:101E200028B9002084F83C00204600F00DF802207C
:101E300084F83D00211D206801F09CF9012084F800
:101E40003D000020E9E7000008B50A4A0168914218
:101E50000FD100BF002100910749096841F400310A
:101E6000054A11601146096801F40031009100BF74
:101E700000BF08BD004401404438024010B586B0A0
:101E80000446142101A8FEF737FB12492068884256
:101E90001DD100BF002000900F48006840F02000D6
:101EA0000D4908600846006800F02000009000BF5F
:101EB00000BF4020019002200290012003900220E8
:101EC00004900320059001A90448FFF75DF806B0CF
:101ED00010BD0000004401403038024000140240B0
:101EE00070B504460D46164600BF94F83C00012824
:101EF00001D1022070BD012084F83C0000BF022007
:101F000084F83D0036B1042E1BD0082E31D00C2EA3
:101F10005ED145E02946206801F0AAF92068806971
:101F200040F00800216888612068806920F0040082
:101F3000216888612068806929690843216888616F
:101F400047E02946206801F0CBF92068806940F419
:101F50000060216888612068806920F480602168C1
:101F6000886120688069296940EA012021688861C8
:101F70002FE02946206801F0F1F92068C06940F09F
:101F800008002168C8612068C06920F00400216849
:101F9000C8612068C069296908432168C86118E0E0
:101FA0002946206801F016FA2068C06940F40060F4
:101FB0002168C8612068C06920F480602168C86118
:101FC0002068C069296940EA01202168C86100E0F1
:101FD00000BF00BF012084F83D0000BF002084F84E
:101FE0003C0000BF00BF85E710B504460CB90120D6
:101FF00010BD94F83D0028B9002084F83C0020462C
:1020000000F00CF8022084F83D00211D206801F04A
:10201000B1F8012084F83D000020E9E77047000096
:1020200070B504460E4601223146206801F00EF9D3
:102030000F492068884203D00E492068884201D1A8
:10204000012000E0002028B12068406C40F40040EE
:10205000216848642068806800F00705062D05D0D7
:102060002068006840F0010021680860002070BD11
:10207000000001400004014000BFFEE710B52DED57
:10208000088B00247AE0424AA2F10C01101DFEF7F1
:1020900089FB3F48103890ED050A10EE101A0846EB
:1020A00003F07CFD41EC1B0B9FED3A0B53EC102B26
:1020B00003F08CFB41EC190B384890ED000A10EE50
:1020C000101A084603F06AFD41EC1A0B53EC192B69
:1020D00003F07AFC41EC180B03F09EFA2F490860DC
:1020E0002B48103890ED060A10EE101A084603F03F
:1020F00055FD41EC1B0B9FED270B53EC102B03F010
:1021000065FB41EC190B254890ED010A10EE101A01
:10211000084603F043FD41EC1A0B53EC192B03F076
:1021200053FC41EC180B03F077FA1C49486018483F
:10213000103890ED070A10EE101A084603F02EFD35
:1021400041EC1B0B9FED130B53EC102B03F03EFBEC
:1021500041EC190B114890ED020A10EE101A0846D6
:1021600003F01CFD41EC1A0B53EC192B03F02CFC73
:1021700041EC180B03F050FA084988602046641CB3
:1021800044F620618842FFF67EAFBDEC088B10BD9F
:102190006C0100202D431CEBE2360A3F04020020B4
:1021A000072002F0DEF802E0642002F0DAF8FEF721
:1021B000DFFA0028F8D19B4AA2F10C01101DFEF7AE
:1021C000F1FAFFF75BFF974A103A9749974801F0F9
:1021D00017FFDFED970A9FED970A974A002197486E
:1021E00000F030FD964A90499648FEF7F9F98E487E
:1021F00090ED000A944880ED000A944880ED000AB2
:10220000934880ED000A884890ED010A8E4880EDE1
:10221000010A8E4880ED010A8D4880ED010A82484E
:1022200090ED020A884880ED020A884880ED020A93
:10223000874880ED020A002002F0D4F8044603F03B
:1022400063F88449086010218348C161FFF7C0FB2F
:1022500008B1FEF7AAFC08228049814800F0C6FDBB
:10226000012080490870DBE000BF4FF0FF31012002
:1022700002F030FC0128F8D17B48007800F004001F
:1022800058B17948007820F0040077490870654912
:10229000091D7248401CFEF737FA7448007800F0B8
:1022A000040060B17148007820F004006F490870A4
:1022B0005C4A1032A2F11C016D48FEF7CFF96D485F
:1022C000007800F0040088B16A48007820F004002B
:1022D0006849087053496848FEF752FB5148103866
:1022E000D0ED040AB0EE600A01F0AAFF4D4A103AA0
:1022F0004D494E4801F084FE544890ED000A544880
:1023000080ED000A504890ED000A504880ED000A28
:1023100090ED000A5948D0ED000A20EE200A4C4802
:10232000D0ED000A554890ED011A00EE810A3E48B2
:10233000D0ED000A514890ED021A00EE810A4248A1
:1023400080ED000A414890ED010A414880ED010A04
:102350003D4890ED010A3D4880ED010A90ED010AEB
:102360004648D0ED000A20EE200A3948D0ED010A97
:10237000424890ED011A00EE810A2B48D0ED010A87
:102380003E4890ED021A00EE810A2F4880ED010AC6
:102390002E4890ED020A2E4880ED020A2A4890ED60
:1023A000020A2A4880ED020A90ED020A3348D0ED75
:1023B000000A20EE200A2648D0ED020A2F4890EDB0
:1023C000011A00EE810A1848D0ED020A2B4890ED60
:1023D000021A00EE810A1C4880ED020A90ED023AD2
:1023E000F0EE432A90ED013AB0EE432A90ED003A28
:1023F000F0EE431A0D4890ED023AB0EE431A90ED1C
:10240000013AF0EE430A90ED003AB0EE430A0D486F
:1024100000F09EF91A4B1A1F111F0A4801F04AFDDD
:1024200022E700006C0100201C02002010020020A6
:102430000080894500A08C45A45C00088C01002028
:102440002802002034020020EC010020E0010020DE
:10245000D401002030000020A4040020340000201B
:102460003C000020580000205500002056000020AD
:1024700052010020570000204F000020B05C0008EF
:102480004C02002008B500BF002000900E480068F4
:1024900040F480000C4908600846006800F48000A1
:1024A000009000BF00BF002205213A20FEF702FF86
:1024B0003A20FEF7EFFE002205213B20FEF7FAFE50
:1024C0003B20FEF7E7FE08BD3038024000B58FB074
:1024D0001C220C4908A8FDF7DDFF002108A801F027
:1024E00051FF094908601C2206491C3101A8FDF76B
:1024F000D1FF002101A801F045FF044908600FB099
:1025000000BD0000BC5C0008DC000020D8000020FA
:1025100000B587B0142102A8FDF7EEFF00BF002030
:1025200001905848006840F002005649086008468B
:10253000006800F00200019000BF00BF00BF002053
:1025400001900846006840F00100086008460068F5
:1025500000F00100019000BF00BF00BF002001900B
:102560000846006840F0800008600846006800F0F7
:102570008000019000BF00BF00BF0020019008460E
:10258000006840F0200008600846006800F0200065
:10259000019000BF00BF00BF002001900846006806
:1025A00040F0040008600846006800F00400019054
:1025B00000BF00BF00BF002001900846006840F047
:1025C000400008600846006800F04000019000BF2D
:1025D00000BF012210212C48FEF7D6FD012241F256
:1025E00001012A48FEF7D0FD10200290012003903F
:1025F00004900220059002A92348FEF7C5FC302074
:102600000290234803900120049002A92148FEF77C
:10261000BBFC012002901E4803900120049002A9F7
:102620001D48FEF7B1FC4FF480500290012003904A
:102630000490059002A91548FEF7A6FC012002901F
:10264000039004900220059002A91048FEF79CFC1C
:10265000002206210846FEF72DFE0620FEF71AFE90
:10266000002205210A20FEF725FE0A20FEF712FEB1
:10267000002205211720FEF71DFE1720FEF70AFE97
:1026800007B000BD303802400000024000040240A4
:1026900000002110000802400018024010B50F4849
:1026A0000F4908604FF48270486000210C48816037
:1026B000C160022101610121416149028161102152
:1026C000C16100210162416281620A21C162FFF79A
:1026D0007FF908B1FEF769FA10BD00000030014033
:1026E000A404002000B587B01C216846FDF704FF54
:1026F0001548164908600020486000211348816091
:102700004FF6FF71C160002101618161FFF781FB1C
:1027100008B1FEF74AFA0D48FFF766FC08B1FEF76C
:1027200044FA602000900020019002900490002262
:1027300069460648FFF7D4FB08B1FEF736FA0348AE
:10274000FFF79CFB07B000BD00440140BC05002022
:1027500000B52DED068B0246B0EE403AF0EE603A41
:10276000B0EE414AF0EE615AF0EE424AB0EE625AE3
:10277000F5EEC05AF1EE10FA09D1F5EEC04AF1EECD
:1027800010FA04D1B5EEC05AF1EE10FA7ED065EE23
:10279000A50A44EEA40A45EE050AB0EE600A01F06F
:1027A000A1FDF0EE402A25EEA20AF0EE405A24EEFA
:1027B000A20AF0EE404A25EE220AB0EE405A92ED0F
:1027C000010AD2ED030A20EE200AD2ED000A92EDB2
:1027D000021AF0EE408A40EEC18A92ED000AD2ED74
:1027E000010A20EE200AD2ED020A92ED031AF0EE61
:1027F000409A40EE819AD2ED000A92ED001AB6EEB0
:10280000000A10EE810AD2ED030A92ED031AB0EE2F
:10281000409A00EE819A24EE890AF0EE407A45EE65
:10282000697A25EE280AB0EE40AA05EEC9AA25EE7F
:10283000A90AB0EE408A04EEE88A7C4890ED000ACE
:10284000B5EEC00AF1EE10FA40DD90ED000A60EE40
:10285000270A774890ED000A9FED761A00EE810A6C
:1028600080ED000A714890ED000A60EE0A0A724895
:1028700090ED000A9FED6F1A00EE810A80ED000ACC
:102880006A4890ED000A60EE080A00E046E06B48F6
:1028900090ED000A9FED671A00EE810A80ED000AB4
:1028A000634890ED000A33EE000AB0EE403A624809
:1028B00090ED000A33EE800AF0EE403A5F4890ED6A
:1028C000000A34EE000AB0EE404A0EE09FED5C0ACA
:1028D000574880ED000A9FED5A0A574880ED000ADC
:1028E0009FED570A554880ED000A5648D0ED000A82
:1028F000B0EE430A00EEA70AB0EE403AD0ED000A6F
:10290000B0EE630A00EE8A0AF0EE403AD0ED000A1B
:10291000B0EE440A00EE880AB0EE404A9FED4A0A43
:1029200023EE000AB0EE403A9FED470A23EE800AFC
:10293000F0EE403A9FED440A24EE000AB0EE404A21
:1029400092ED006AD2ED016A92ED027AB1EE660A6A
:1029500020EE030A07EE630AD2ED030A00EEC40A72
:10296000D2ED000A30EE200A82ED000A26EE030ABC
:1029700007EE040AD2ED030A00EEE30AD2ED010AE3
:1029800030EE200A82ED010A26EE230A06EEC40A82
:10299000D2ED030A00EE830AD2ED020A30EE200ADD
:1029A00082ED020A26EE040A06EEA30A07EE430AA7
:1029B000D2ED030A30EE200A82ED030AD2ED000ABE
:1029C00060EEA00A92ED011AD2ED011A41EE210A41
:1029D00092ED021AD2ED021A41EE210A92ED031A8B
:1029E000D2ED031A41EE210AB0EE600A01F07AFC42
:1029F000F0EE402A92ED000A20EE220A82ED000A53
:102A000092ED010A20EE220A82ED010A92ED020AFD
:102A100020EE220A82ED020A92ED030A20EE220A3B
:102A200082ED030ABDEC068B00BD0000B80000205B
:102A3000BC0000206F12833AC0000020C4000020B8
:102A400000000000B40000206F12033A00BFFEE750
:102A500000BFFEE7B0EE401A10B99FED790A70474B
:102A600090ED100A80ED110A90ED0F0A80ED100A2A
:102A7000C0ED060A80ED071A30EEC10A80ED0F0A9C
:102A80000178002975D190ED010AD0ED0F1A20EEE2
:102A9000210A80ED090A90ED0A0AD0ED021A90EDA4
:102AA0000F2A01EE820A80ED0A0A90ED0D0A80EDF0
:102AB0000E0A90ED0C0A80ED0D0A90ED0F0AD0ED94
:102AC000101A30EE610A80ED0C0A90ED030AD0ED89
:102AD0000C1A20EE210A80ED0B0A90ED0A0AD0EDC7
:102AE000051AB4EEE10AF1EE10FA04DD90ED050AE4
:102AF00080ED0A0A10E090ED0A0AD0ED051AF1EE19
:102B0000611AB4EEE10AF1EE10FA05D290ED050A71
:102B1000B1EE400A80ED0A0A90ED090AD0ED0A1ADA
:102B200030EE210AD0ED0B1A30EE210A80ED080AB2
:102B300090ED080AD0ED041AB4EEE10AF1EE10FAB5
:102B400004DD90ED040A80ED080A76E090ED080AB5
:102B5000D0ED041AF1EE611AB4EEE10AF1EE10FACA
:102B60006BD290ED040AB1EE400A80ED080A64E0F1
:102B7000FFE70178012960D190ED0F0AD0ED101A1E
:102B800030EE610AD0ED011A20EE210A80ED090A2B
:102B900090ED020AD0ED0F1A20EE210A80ED0A0A0C
:102BA00090ED0D0A80ED0E0A90ED0C0A80ED0D0AF5
:102BB00090ED0F0AD0ED101AB0EE002A02EE610A75
:102BC000D0ED111A30EE210A80ED0C0A90ED030AC7
:102BD000D0ED0C1A20EE210A80ED0B0A90ED090AC7
:102BE000D0ED0A1A30EE210AD0ED0B1A30EE210A90
:102BF000D0ED081A30EE210A80ED080A90ED080A9F
:102C0000D0ED041AB4EEE10AF1EE10FA04DD90ED15
:102C1000040A80ED080A10E090ED080AD0ED041ACD
:102C2000F1EE611AB4EEE10AF1EE10FA05D290ED80
:102C3000040AB1EE400A80ED080A90ED080A0EE79A
:102C40000000000000B102B97047017092ED001A57
:102C500080ED011A92ED011A80ED021A92ED021A2E
:102C600080ED031A80ED040AC0ED050A9FED0C1AF1
:102C700080ED0E1A80ED0D1A80ED0C1A9FED081AEA
:102C800080ED081A80ED0B1A80ED0A1A80ED091A02
:102C900080ED111A80ED101A80ED0F1A00BFD3E7F6
:102CA0000000000010B54D4B1B681B6823F00103AA
:102CB0004A4C246823604A4B1B681B6823F00103BD
:102CC000474C2468236007E0444B1B681B6823F0D3
:102CD0000103424C24682360404B1B681B6803F0CF
:102CE0000103002BF0D107E03D4B1B681B6823F06C
:102CF00001033B4C24682360394B1B681B6803F0BD
:102D00000103002BF0D1354B1B68364CA34205D98B
:102D10004FF40013334C4C3C23601BE02F4B1B68DB
:102D2000314CA34205D94FF400132E4C503C236084
:102D300010E02A4B1B682C4C603CA34205D94FF491
:102D40000013294CB83CE36004E04FF40013264C18
:102D5000B83CA360224B1B68224CA34205D94FF01C
:102D60000063204C4C3C23601BE01D4B1B681E4C39
:102D7000A34205D94FF000631A4C503C236010E089
:102D8000174B1B68184C603CA34205D94FF00063F9
:102D9000154CB83CE36004E04FF00063124CB83CC3
:102DA000A3600E4B1B68D9600D4B1B68D8600B4BA2
:102DB0001B685A600A4B1B685A60084B1B681B68EB
:102DC00043F00103054C24682360054B1B681B6816
:102DD00043F00103024C2468236010BDFC04002072
:102DE0005C05002058640240B860024010B5594BA1
:102DF0001B685B6843F00203564C24686360554BC4
:102E00001B685B6843F00103524C24686360514BBC
:102E10001B681B6843F040034E4C246823604E4BF4
:102E20001B681B6823F001034B4C2468236007E0F8
:102E3000494B1B681B6823F00103474C246823603F
:102E4000454B1B681B6803F00103002BF0D1424B7C
:102E50001B68424CA34205D94FF400133F4C4C3C35
:102E600023601BE03C4B1B683D4CA34205D94FF44B
:102E700000133A4C503C236010E0374B1B68384C31
:102E8000603CA34205D94FF40013354CB83CE360D5
:102E900004E04FF40013324CB83CA360314B2E4C8D
:102EA0002468A3602C4B1B68D9602B4B1B685A60AD
:102EB000294B1B681B6843F01003274C24682360D0
:102EC000294B1B681B6823F00103274C24682360EF
:102ED00007E0254B1B681B6823F00103224C246884
:102EE0002360214B1B681B6803F00103002BF0D10A
:102EF0001D4B1B68194CA34205D94FF00063174CBA
:102F00004C3C23601BE0184B1B68154CA34205D9B1
:102F10004FF00063114C503C236010E0124B1B68D3
:102F20000F4C603CA34205D94FF000630C4CB83CF9
:102F3000E36004E04FF00063094CB83CA360094B28
:102F4000094C2468A360084B1B68D860064B1B68BB
:102F50005A6010BDA4040020FC0400205864024004
:102F6000B86002400C3001405C050020F8B5044612
:102F70000D4616462B46002280212046009600F082
:102F800009F828B1606D40F0200060650320F8BDAD
:102F90000020FCE72DE9F04104460E4617461D4689
:102FA000DDF818803EE0681CD8B3FEF7F3F8A0EB1C
:102FB0000800A84200D2A5BB2068406820F0E000CD
:102FC000216848606068B0F5827F0DD1A068B0F5D7
:102FD000004F03D0A068B0F5806F05D1206800686D
:102FE00020F0400021680860A06AB0F5005F0DD1B4
:102FF00000BF2068006820F4005021680860206845
:10300000006840F400502168086000BF012084F887
:10301000510000BF002084F8500000BF0320BDE82D
:10302000F081FFE7206880683040B04201D1012084
:1030300000E00020B842B6D10020F0E700BF012038
:1030400001F08FF9FBE710B5FEF7AAF802F0AEF930
:10305000012801D002F0B0F810BD000000B593B017
:10306000302107A8FDF748FA142102A8FDF744FA19
:1030700000BF002001902448006840F080502249A1
:1030800008600846006800F08050019000BF00BF53
:1030900000BF002001901D48006840F480401B499B
:1030A00008600846006800F48040019000BF00BF3F
:1030B000012007900004089002200D9041050E9118
:1030C00019210F914FF4A87110910221119104213F
:1030D000129107A8FEF758FA08B1FDF766FD0F2018
:1030E000029002200390002004904FF4A05005901D
:1030F0004FF480500690052102A8FEF72DF908B183
:10310000FDF753FD13B000BD403802400070004091
:103110001448006840F470001249086012480068C2
:1031200040F001001049086000200F490831086094
:103130000D4800680D4908400B4908600C48091DFE
:103140000860081F006820F48020091F0860002024
:1031500005490C3108604FF0006002498039086071
:103160007047000088ED00E000380240FFFFF6FEE7
:103170001030002410B50268294B98420ED0B0F1EF
:10318000804F0BD0274B984208D0274B984205D050
:10319000264B984202D0264B984203D122F070026F
:1031A0004B681A431E4B984220D0B0F1804F1DD07F
:1031B0001C4B98421AD01C4B984217D01B4B98427C
:1031C00014D01B4B984211D01A4B98420ED01A4B78
:1031D00098420BD0194B984208D0194B984205D011
:1031E000184B984202D0184B984203D122F44072F7
:1031F000CB681A4322F080034C6943EA0402026060
:103200008B68C3620B688362054B984202D0084BFF
:10321000984201D10B6903630123436110BD000093
:10322000000001400004004000080040000C004085
:1032300000040140004001400044014000480140BA
:1032400000180040001C00400020004030B501F094
:103250001F05012404FA05F3046A9C430462046A0E
:1032600001F01F0502FA05F52C43046230BD000091
:1032700030B5056A25F001050562026A4368846974
:1032800024F0700424F003040D682C4322F00202A1
:103290008D682A43104DA84200D103E00F4DA8428B
:1032A00006D100BF22F00802CD682A4322F00402B2
:1032B000094DA84202D0094DA84207D123F48073DA
:1032C00023F400734D692B438D692B434360846164
:1032D0004D684563026230BD0000014000040140BA
:1032E00030B5056A25F010050562026A43688469F5
:1032F00024F4E04424F440740D6844EA052422F0E8
:1033000020028D6842EA0512124DA84200D103E066
:10331000114DA84207D100BF22F08002CD6842EAD9
:10332000051222F040020B4DA84202D00A4DA842DD
:1033300009D123F4806323F400634D6943EA8503D4
:103340008D6943EA8503436084614D688563026249
:1033500030BD0000000001400004014030B5056AA6
:1033600025F480750562026A4368C46924F070041C
:1033700024F003040D682C4322F400728D6842EAA5
:103380000522124DA84200D103E0114DA84207D1F9
:1033900000BF22F40062CD6842EA052222F4806276
:1033A0000A4DA84202D00A4DA84209D123F4805305
:1033B00023F400534D6943EA05138D6943EA05136D
:1033C0004360C4614D68C563026230BD00000140C6
:1033D0000004014030B5056A25F480550562036A92
:1033E0004468C26922F4E04222F440720D6842EA65
:1033F000052223F400538D6843EA0533084DA842A3
:1034000002D0084DA84204D124F480444D6944EA16
:1034100085144460C2614D680564036230BD0000DC
:10342000000001400004014000BFFEE74100080227
:1034300018BF04200A0E18BF40F001004FF07F4271
:1034400032EA010108BF40F00200012808BF052050
:103450007047000002480068C0F302207047000077
:103460000CED00E010B5002804DB0A07130E054A36
:10347000135406E00A07140E034A00F00F031B1F43
:10348000D45410BD00E400E018ED00E010B54FF09A
:103490000E402DED028BB0EE408A18EE104A00EB84
:1034A0004400B0F1506F4AD84FF0FC40B0EB440FED
:1034B00022D2B0EEC80AF7EE000A30EEC00AF6EEED
:1034C000000A60EE208A18EE900A01F0E3FA01EE9D
:1034D000100A14F0004F1DBFDFED2D0A9FED2D0ADD
:1034E000B1EE411ADFED2C0A08BF9FED2C0AF8EE71
:1034F000001A21EE218A05E0DFED290A68EE088A2C
:10350000B0EE600A9FED271ADFED271A30EE080AA9
:1035100048EE811A9FED251A08EEA11ADFED241A54
:1035200048EE811A9FED231A08EEA11A68EE281AB8
:10353000BDEC028B01EE810A30EE200A10BD4FF087
:10354000E440B0EB440F0CD918EE100AFFF76EFF01
:10355000042808BF00F066F9B0EE480ABDEC028B03
:1035600010BD4FF07F40B0EB440F07D2B0EE480AD9
:10357000BDEC028BBDE8104000F046B90120FCF71D
:10358000EAFFBDEC028BBDE8104000F043B900003B
:103590000000C9BF22AAFDB90000C93F22AAFD3917
:1035A0000000000024FE1C3DC78AD83C1E67383D41
:1035B0001B93993DAFAA2A3E10EE100A10B510EEEB
:1035C000901A4FF0684202EB40032DED028BB3F1ED
:1035D000654F3CBF02EB4102B2F1654F7CD200BFA8
:1035E000C0F3C753C1F3C7529A1A1B2A09DD10F062
:1035F000004F14BF9FED6E0A9FED6E0ABDEC028B6B
:1036000010BD12F11A0F1BDA11F0004F09D010F0A3
:10361000004F0CBF9FED680A9FED680ABDEC028B5E
:1036200010BD80EE208A18EE100AFFF7FFFE042876
:1036300008BF00F0F7F8B0EE480ABDEC028B10BDF1
:103640004200B2EB410F37D910F0004F19BFDFED48
:103650005C1A9FED5C1ADFED5C1A9FED5C1AB0EE10
:10366000602A0A46F1EE400A80F00041B0EE420ABC
:1036700010460A1A5200B2F1807F34D2484010F04E
:10368000004FDFED532A9FED533A1DBFBEEE002AD7
:1036900071EEE21A31EE431AB6EE002A04BF71EE63
:1036A000A21A31EE031AF0EE402A42EE602A40EEF2
:1036B000020A82EEA02A18E011F0004F04BF9FED2D
:1036C000461AF0EE411AD4D010F0004F1CBFDFEDC7
:1036D000431A9FED431A00E026E004BFDFED411AD4
:1036E0009FED411AC5E780EE202A22EE020ADFEDA7
:1036F0003F0ADFED3F2ABDEC028B40EE202ADFEDD2
:103700003D0A40EE220ADFED3C2A40EE202ADFEDA2
:103710003B0A40EE220A22EE000A00EE201A31EEA9
:10372000020A30EE210A10BD4FF07F42B2EB400F8B
:1037300028BFB2EB410F05D2BDEC028BBDE81040B3
:1037400000F065B840EA01035B0008BF41F0FF41AB
:103750000BD0B2EB400F08BFB2EB410F08D120F005
:10376000804000EE100A21F0804100EE901A37E709
:10377000B2EB400F12BF5FEA410240F0FF4001F0A0
:1037800000413FF42DAF4A0092EA40033FF528AFD5
:10379000002AACBF9FED1A1A9FED1A1A20EE010AFB
:1037A00060EE810A10EE100A10EE901A18E7000081
:1037B000DB0FC9BFDB0FC93FDB0F4940DB0F49C03F
:1037C0000000C9BF22AAFDB90000C93F22AAFD39E5
:1037D0000060ED3EC30ACE3700000000000049C083
:1037E00022AA7DBA0000494022AA7D3A2DAD65BDCE
:1037F0008FB8D53D0FB511BE61C84C3EA8AAAABE70
:103800000000804F0000802F30EE000A704730EE3D
:10381000200A7047DFED020A80EEA00A7047000020
:10382000000000009FED020A20EE000A7047000031
:103830000000001038B5002000900024FCF7EEFED8
:103840008020FDF78DF85520FDF78AF85520FDF70B
:1038500087F80090FCF7D8FE9620FCF74EFFFCF7A7
:10386000DDFE8020FDF77CF85520FDF779F8552026
:10387000FDF776F80090FCF7C7FE9620FCF73DFFB9
:10388000FCF7CCFEB6217E20FDF794F8FCF7BCFED9
:103890005020FCF72CFFFCF7C1FE8020FDF760F8FC
:1038A0005520FDF75DF85520FDF75AF80090FCF71C
:1038B000ABFE9620FCF721FFFCF7B0FE8020FDF761
:1038C0004FF85520FDF74CF85520FDF749F80090CA
:1038D000FCF79AFE9620FCF710FF9DF800001E28CA
:1038E00001D0FF2038BD002437E0FCF797FE04EB41
:1038F00044021C4B1A44517804EB4402985CFDF7D7
:1039000059F8FCF781FE9620FCF7F7FEFCF786FEDF
:1039100004EB4401134A515C41F08000FDF720F8AC
:103920005520FDF71DF85520FDF71AF80090FCF71B
:103930006BFE9620FCF7E1FE04EB440009490844C5
:1039400040789DF80010884205D004EB44000549FA
:1039500008448078C6E7601CC4B2062CC5DB002092
:10396000C0E700000800002010B586B000200190DC
:10397000029000900024FCF751FE8020FCF7F0FF3D
:103980005520FCF7EDFF5520FCF7EAFF0090FCF70F
:103990003BFE9620FCF7B1FEFCF740FE8020FCF7D2
:1039A000DFFF5520FCF7DCFF5520FCF7D9FF009026
:1039B000FCF72AFE9620FCF7A0FEFCF72FFEB621AE
:1039C0007E20FCF7F7FFFCF71FFE5020FCF78FFE70
:1039D000FCF724FE8020FCF7C3FF5520FCF7C0FF56
:1039E0005520FCF7BDFF0090FCF70EFE9620FCF77B
:1039F00084FEFCF713FE8020FCF7B2FF5520FCF795
:103A0000AFFF5520FCF7ACFF0090FCF7FDFD9620C2
:103A1000FCF773FE9DF800001E2802D0FF2006B0C0
:103A200010BD00243CE0FCF7F9FD04EB44028E4B92
:103A30001A44517804EB4402985CFCF7BBFFFCF796
:103A4000E3FD9620FCF759FE88480470FCF7E6FD7C
:103A500004EB4401844A515C41F08000FCF780FF94
:103A60005520FCF77DFF5520FCF77AFF0090FCF70E
:103A7000CBFD9620FCF741FE04EB44007A49084454
:103A800040789DF80010884205D004EB4400764948
:103A900008448078C3E75020FCF729FE601CC4B2BC
:103AA000042CC0DB002471E0FCF7B8FD221D02EB02
:103AB00042026D4B1A445178221D02EB4202985C7F
:103AC000FCF778FFFCF7A0FD9620FCF716FEFCF74C
:103AD000A5FD211D01EB4101634A515C41F08000CD
:103AE000FCF73EFF5520FCF73BFF5520FCF738FF65
:103AF0000090FCF789FD9620FCF7FFFD5B48047001
:103B0000201D00EB40005849084440789DF8001003
:103B1000884206D0201D00EB4000534908448078BD
:103B20007DE75020FCF7E3FDFCF778FD9220FCF7E1
:103B300017FF062201A91220FCF7F2FEFCF764FD34
:103B40009DF80500000200B29DF80410084304EB44
:103B5000440103AA22F811009DF80700000200B2F8
:103B60009DF80610084304EB440102EB4101488034
:103B70009DF80900000200B29DF80810084304EB0C
:103B8000440102EB41018880601CC4B2022C8BDB33
:103B9000FCF744FD00216D20FCF70CFFFCF734FD21
:103BA0009620FCF7AAFDFCF739FDED20FCF7D8FEC6
:103BB0005520FCF7D5FE5520FCF7D2FE0090FCF70F
:103BC00023FD9620FCF799FD9DF8000008B1042024
:103BD00025E7FCF723FDB6217E20FCF7EBFEFCF782
:103BE00013FD5020FCF783FDBDF90C00BDF9121048
:103BF000401A40F25551884210DBBDF90E10BDF954
:103C00001400081A40F25551884207DBBDF9101024
:103C1000BDF91600081AB0F52A7F01DA8020FEE609
:103C2000FCF7FCFC8020FCF79BFE5520FCF798FE7F
:103C30005520FCF795FE0090FCF7E6FC9620FCF77B
:103C40005CFDFCF7EBFC8020FCF78AFE5520FCF7BE
:103C500087FE5520FCF784FE0090FCF7D5FC9620EB
:103C6000FCF74BFD0020DAE6925C00082C000020F7
:103C700038B5002400200090FCF7E6FC69460020DF
:103C8000FCF761FEFCF7D6FC9620FCF736FDFCF74E
:103C9000DBFC69460020FCF756FEFCF7CBFC9620C7
:103CA000FCF72BFDFCF7D0FCB6211420FCF782FEBC
:103CB000FCF7C0FC5020FCF71AFDFCF7C5FC694678
:103CC0000020FCF740FEFCF7B5FC9620FCF715FD44
:103CD000FCF7BAFC69460020FCF735FEFCF7AAFCAD
:103CE0009620FCF70AFD9DF800000F2801D0FF2068
:103CF00038BD00242FE0FCF7A7FC04EB4402184B6E
:103D00001A44517804EB4402985CFCF753FEFCF72C
:103D100091FC9620FCF7F1FCFCF796FC04EB4401C7
:103D20000F4A505C6946FCF70EFEFCF783FC9620B8
:103D3000FCF7E3FC04EB44000949084440789DF893
:103D40000010884205D004EB4400054908448078FF
:103D5000CEE7601CC4B2062CCDDB0020C8E7000013
:103D60001A00002038B5002000900024FCF76CFCFD
:103D700069460020FCF7E7FDFCF75CFC9620FCF7A9
:103D8000BCFCFCF761FC69460020FCF7DCFDFCF79D
:103D900051FC9620FCF7B1FCFCF756FCB621142030
:103DA000FCF708FEFCF746FC5020FCF7A0FCFCF7F3
:103DB0004BFC69460020FCF7C6FDFCF73BFC962057
:103DC000FCF79BFCFCF740FC69460020FCF7BBFDC0
:103DD000FCF730FC9620FCF790FCFCF735FC012149
:103DE0003C20FCF7E7FDFCF725FC5020FCF77FFCAE
:103DF00000BFFCF729FC69463C20FCF7A4FDFCF75A
:103E000019FC9620FCF779FC601CC4B29DF80000F8
:103E100000F0020008B90A2CEBDB0A2C01D140208B
:103E200038BD9DF8000000F0040008B14020F7E71D
:103E30000020F5E7074800680749B0FBF1F00749A3
:103E40000870044800684FF47A71B0FBF1F004493F
:103E500008607047EC00002040420F00D0000020B6
:103E6000D400002070B50346002400210020002269
:103E700000254FF0E02675690D4E367803FB06F4F9
:103E80004FF0E026B16910E04FF0E026B0698842BB
:103E90000BD0884202D20E1A324402E02E1A0E448F
:103EA00032440146A24200D300E0EDE700BF70BDFE
:103EB000D00000202DE9F0412DED048B04460D4685
:103EC00016461F4694ED001A21EE011AD4ED011A90
:103ED00094ED012A01EE821AF7EE001AB0EE002AE4
:103EE00052EE011AF0EE610A94ED001AD4ED031AB5
:103EF00021EE211AD4ED011A94ED022A01EE821A64
:103F0000F0EE001A21EE211AB0EE410AFFF754FB41
:103F100010EE108A404601F041FE41EC190B9FED76
:103F2000360B53EC102B01F051FC41EC180B01F057
:103F300073FB2860D4ED010A94ED031A60EE810A48
:103F400094ED001AD4ED021A41EE610AB8EE001A9F
:103F500060EE810AB0EE600AFFF798FA10EE108A60
:103F6000404601F01BFE41EC190B9FED230B53EC77
:103F7000102B01F02BFC41EC180B01F04DFB3060D5
:103F800094ED001A21EE011AD4ED031A94ED032AE0
:103F900001EE821AF7EE001AB0EE002A52EE011A74
:103FA000F0EE610A94ED001AD4ED011A21EE211A07
:103FB000D4ED021A94ED032A01EE821AF0EE001AF3
:103FC00021EE211AB0EE410AFFF7F6FA10EE108A40
:103FD000404601F0E3FD41EC180B9FED070B53EC5D
:103FE000102B01F0F3FB41EC190B01F015FB3860CD
:103FF000BDEC048BBDE8F0816666666666A64C4043
:1040000030B50346002055E092ED050A00EB400470
:104010002A4D05EB8404D4ED000A20EE200AD2EDEF
:10402000060A00EB400405EB840494ED011A00EE4F
:10403000810AD2ED070A00EB400405EB840494EDFD
:10404000021A00EE810A1E4C04EB8004D4ED000A33
:1040500030EE200A03EB800484ED000A92ED010AA1
:1040600000EB4004174D05EB8404D4ED000A20EE6C
:10407000200AD2ED020A00EB400405EB840494ED23
:10408000011A00EE810AD2ED030A00EB400405EBB1
:10409000840494ED021A00EE810A0B4C04EB8004B8
:1040A000D4ED000A30EE200A01EB800484ED000A12
:1040B000441CE0B20328A7DB30BD00005C000020F8
:1040C00004020020800000208001002010B54D482F
:1040D000007800F0010068B34B48806C006800680D
:1040E00000F0010030BB4848C06C0068006800F078
:1040F0000100F8B94548007800F00200D0B9444802
:10410000007800F00200A8B93E48007820F00100D5
:104110003C4908700846007840F002000870002210
:1041200001213C48FDF730F808223B493B48FEF7A7
:10413000B9FD10BD3548007800F0010068B3324881
:10414000806C0068006800F0010030BB2E48C06C35
:104150000068006800F00100F8B92A48007800F013
:104160000200D0B92A48007800F00200A8B9274818
:10417000007820F00100254908700846007840F0DA
:1041800002000870002210212548FCF7FDFF0922DB
:1041900024492548FEF786FDCBE71D48007800F04E
:1041A000010068B31848806C0068006800F00100E6
:1041B00030BB1548C06C0068006800F00100F8B919
:1041C0001048007800F00200D0B91048007800F0E4
:1041D0000200A8B90E48007820F001000C490870D0
:1041E0000846007840F002000870002210210C48B8
:1041F000FCF7CAFF04220D490D48FEF753FD98E76E
:1042000000BF96E755000020A404002056000020BF
:104210005700002000040240340000203C00002031
:104220000000024050010020440000204D0000200A
:10423000510000200149096848637047BC0500200F
:1042400010B52DED028BB0EE408A20480078F0B119
:10425000DFED1F0AB0EE480A1E48FEF7FBFB1D48C3
:1042600090ED080AB5EEC00AF1EE10FA03D29FED08
:104270001A0A80ED080A174890ED080ABCEEC00A39
:1042800010EE100A84B22046FFF7D4FF1BE09FED2A
:10429000100AB4EEC08AF1EE10FA10DD0F48007873
:1042A000401C0E49087008460078C82807DD012028
:1042B000064908709FED0A0A064880ED0A0A41F295
:1042C0008730FFF7B7FFBDEC028B10BDA4000020C4
:1042D000000020428C01002000000000C8000020E7
:1042E00000401C45F0EE400AF6EE001A60EEA11AFE
:1042F000B0EE611AB0EE600A10EE100A0749A1EBA9
:10430000600000EE100A21EE002AF7EE081A42EED5
:10431000401A61EE801AB0EE610A7047DF59375FCC
:10432000FCF74AFFFEF79AFEFEF7F2F8FEF7AAF84E
:10433000FEF7B4F9FEF7D6F9FFF77CFD002104483B
:10434000FDF76EFEFEF7C2F800F017F800BFFEE7BB
:10435000BC05002001460020842901D0CA1C10445D
:10436000704770B5044625460DB1294600E001218D
:10437000084600F021FD002070BD10B500F0C2FD20
:10438000002010BD7FB504460D46606998B1A06954
:1043900088B1B4F90800FFF7DDFF0646D4E905103F
:1043A000CDE9006102902B462269D4E9001000F0AB
:1043B0004FFF039013E0B4F90800FFF7CBFF064668
:1043C00003A8CDE90060238A9AB22B46D4E90010F5
:1043D00000F00CFF012802D0002004B070BD03984B
:1043E000FBE70000014611B90948006800E00846F3
:1043F000024652B900BF502080F31188BFF34F8F9F
:10440000BFF36F8F00BF00BFFEE702F134007047BB
:10441000F00000202DE9F04105460E461C480768D3
:104420001C480068001D00F08FFB50B91948006857
:1044300090F82C10012088401749096881431648DC
:104440000160681C38B936B112480168091D13486B
:1044500000F0C4FB1AE07C190E4800684460BC42BE
:1044600007D20C480168091D0D48006800F09CFB4C
:104470000CE008480168091D0A48006800F094FB38
:1044800009480068844201D207480460BDE8F08111
:1044900004010020F000002008010020D8060020C0
:1044A000F8000020F40000202001002010B5044690
:1044B00000F0A0FB23480068401C22490860224805
:1044C000006840B9204804600846006801280DD102
:1044D00000F03AF90AE01D48006838B91A48006847
:1044E000C06AE16A884201D8174804601848006829
:1044F000401C1749086094F82C1001208840154989
:104500000968084313490860E16A01EB8101124A16
:1045100002EB8100211D00F061FB00F095FB0B48D0
:10452000006868B108480068C06AE16A884207D23A
:104530004FF0805009490860BFF34F8FBFF36F8F72
:1045400010BD000000010020F00000200C01002040
:104550001C01002008010020FC05002004ED00E003
:1045600010B516E000F046FB0C48C068C468201D7A
:1045700000F0EAFA0A480068401E09490860094844
:104580000068401E0749086000F05EFB204600F00E
:104590000BF8044800680028E4D110BDC4060020D0
:1045A00000010020FC00002010B5044694F85100E2
:1045B00030B9206B00F066FB204600F063FB1AE088
:1045C00094F85100012803D1204600F05BFB12E073
:1045D00094F85100022801D1012000E0002050B9D8
:1045E00000BF502080F31188BFF34F8FBFF36F8F50
:1045F00000BF00BFFEE710BD30B54FF47053174841
:1046000000F007042CB1C01D20F00700134C041B60
:104610001B1B0246124C22600024114D6C60D01806
:10462000083820F007000F4C206000240D4D2D6845
:104630006C600C4D2D682C601146441A4C60094C7E
:1046400024680C60084D4C682C60084D4C682C6048
:104650004FF00044064D2C6030BD0000EC060020F9
:104660002C010020340100203C01002038010020F2
:104670004001002000BFFFF773FF064800680128D3
:10468000F9D94FF0805004490860BFF34F8FBFF352
:104690006F8FF0E7FC05002004ED00E02DE9FF5FDF
:1046A00081460F469246DDE90E6B109CAAF101008F
:1046B000216B01EB800828F0070808F0070008B913
:1046C000012000E0002050B900BF502080F3118885
:1046D000BFF34F8FBFF36F8F00BF00BFFEE7002512
:1046E00007E0795D04F134004155785D00B902E0DE
:1046F0006D1C102DF5D300BF002143200155072E5E
:1047000000D30626E66266640020A064201D00F047
:1047100048FA04F1180000F044FA2461C6F10700D9
:10472000A06164620020E06484F85000494640467D
:10473000039A00F099F92060BBF1000F01D0CBF88B
:104740000040BDE8FF9F000010B5002407E004EB27
:1047500084010F4A02EB810000F016FA641C072C5A
:10476000F5D30C4800F010FA0B4800F00DFA0B4896
:1047700000F00AFA0A4800F007FA0A4800F004FAC2
:1047800004480949086004480849086010BD000051
:10479000FC050020880600209C060020B0060020B2
:1047A000C4060020D8060020F4000020F8000020F5
:1047B00010B50146164800E0006803688B42FBD341
:1047C0000246436813448B4204D143684C68234437
:1047D000436001460A464B6813440468A34211D162
:1047E0000C4C03682468A34208D04B6804686468D2
:1047F00023444B6003681B680B6005E0054B1B6896
:104800000B6001E003680B60884200D0016010BDBE
:104810002C010020340100200A490968096809B9FF
:10482000012100E0002121B14FF0FF31064A116063
:1048300006E004490968C968C868034A416811600C
:1048400070470000F4000020200100202DE9F04115
:1048500002460D4600271068002843D01046D0F8C5
:1048600004C0DCF804C0C0F804C000F1080CD0F8A3
:104870000480E04505D1D0F804C0DCF804C0C0F8DD
:1048800004C0D0F804C0DCF80C6000BF1046D0F8BB
:1048900004C0DCF804C0C0F804C000F1080CD0F873
:1048A0000480E04505D1D0F804C0DCF804C0C0F8AD
:1048B00004C0D0F804C0DCF80C1000230AE001F1B9
:1048C0003400C45CE85CA04200D005E00CB90F469F
:1048D00002E05B1C102BF2D300BF07B101E0B14234
:1048E000D4D100BF3846BDE8F08100000E48006812
:1048F000401C08B9012000E0002050B900BF502042
:1049000080F31188BFF34F8FBFF36F8F00BF00BFDD
:10491000FEE700BF502080F31188BFF34F8FBFF335
:104920006F8F00BF00BFFEE7440100202DE9F0417A
:1049300004464FF0000800F03DFB4648006808B907
:10494000FFF75AFE44480068204000286BD1D4B1DC
:10495000083404F00700B0B104F00700C0F108000B
:10496000044404F0070008B9012000E0002050B919
:1049700000BF502080F31188BFF34F8FBFF36F8FBC
:1049800000BF00BFFEE7002C4DD0344800688442D1
:1049900049D8334E3046056801E02E462D686868D8
:1049A000A04202D228680028F7D12A480068854230
:1049B00039D0306800F10808286830606868001B4A
:1049C000102819D92F1907F0070008B9012000E0B5
:1049D000002050B900BF502080F31188BFF34F8FE3
:1049E000BFF36F8F00BF00BFFEE76868001B7860F1
:1049F0006C603846FFF7DCFE184968680968081AD9
:104A0000164908600846006816490968884203D2BA
:104A100012480068134908600F496868096808432C
:104A200068600020286000F075FD08F0070008B9F4
:104A3000012000E0002050B900BF502080F3118811
:104A4000BFF34F8FBFF36F8F00BF00BFFEE740463D
:104A5000BDE8F08134010020400100203801002031
:104A60002C0100203C010020001F4FF080730360E8
:104A7000001F21F001030360001F054B0360143881
:104A80000260001F6FF002030360203870470000CF
:104A9000ED48000810B500EE100A2DED028BB1EEC6
:104AA000C08A18EE100A20F00040C0F1FF40C00F8D
:104AB0000AD010EE100A20F00040C0F1FF40C00FF5
:104AC00004BF0120FBF747FD18EE100ABDEC028B76
:104AD00010BD000070B506460D4600F08BF8184872
:104AE0000068C06C88B901201549096881F8500038
:104AF0005DB101212846FFF78DFC4FF08050114930
:104B00000860BFF34F8FBFF36F8F00F09DF800F088
:104B100071F80B480068C46C4CB126B100200849FC
:104B20000968C86403E0601E05490968C86400207C
:104B30000349096881F8500000F086F8204670BDEE
:104B4000F000002004ED00E001460A69D1E90130DF
:104B50009860D1E9010358605068884201D18868A3
:104B60005060002008611068401E10601068704797
:104B7000034B0360034B0B608023136070470000FE
:104B800050020020A402002000F1080141604FF013
:104B9000FF31816000F10801C16001610021016005
:104BA000704700210161704710B502460B685C1C1C
:104BB0000CB9106907E002F1080000E040684468A1
:104BC00024689C42FAD944684C604C68A1608860B3
:104BD00041600A611468641C146010BD42684A6038
:104BE00093688B60936859609160086103685B1CEF
:104BF0000360704700BF502080F31188BFF34F8FD0
:104C0000BFF36F8F00BF0E480068401C0C4908605E
:104C100008460068012812D10A480068C0B208B9E5
:104C2000012000E0002050B900BF502080F311881F
:104C3000BFF34F8FBFF36F8F00BF00BFFEE770471A
:104C40004401002004ED00E00D48006850B900BFA9
:104C5000502080F31188BFF34F8FBFF36F8F00BFD9
:104C600000BFFEE706480068401E05490860084688
:104C7000006820B9002080F3118800BF00BF704792
:104C80004401002070B506463546002E3FD0083D51
:104C90002C461F4960680968084008B1012000E0FF
:104CA000002050B900BF502080F31188BFF34F8F10
:104CB000BFF36F8F00BF00BFFEE7206808B9012077
:104CC00000E0002050B900BF502080F31188BFF3EE
:104CD0004F8FBFF36F8F00BF00BFFEE70C496068C6
:104CE0000968084098B1206888B90949606809686E
:104CF0008843606000F05EF906496068096808440E
:104D0000044908602046FFF753FD00F003FC70BD26
:104D1000400100203801002000204FF0E021086110
:104D20008861064800684FF47A71B0FBF1F0401ECC
:104D30004FF0E0214861072008617047EC00002037
:104D400070B5FBF7EDFA0446102C16D304F1E02001
:104D500090F8F05315480078854201DB012000E00F
:104D6000002050B900BF502080F31188BFF34F8F4F
:104D7000BFF36F8F00BF00BFFEE70D48006800F46F
:104D8000E0600C490968884201D8012000E0002059
:104D900050B900BF502080F31188BFF34F8FBFF38D
:104DA0006F8F00BF00BFFEE770BD0000480100200C
:104DB0000CED00E04C01002070B504460025D4B194
:104DC0001248006808B9012000E0002050B900BF77
:104DD000502080F31188BFF34F8FBFF36F8F00BF58
:104DE00000BFFEE700F0E6F800212046FFF712FBC7
:104DF00000F090FB05463DB94FF080500449086033
:104E0000BFF34F8FBFF36F8F70BD000028010020EC
:104E100004ED00E02DE9F04105460F4655B900BF0D
:104E2000502080F31188BFF34F8FBFF36F8F00BF07
:104E300000BFFEE7FFF784FF2C4600BF5021EFF3D1
:104E4000118081F31188BFF34F8FBFF36F8F00BFC5
:104E5000064694F85080022084F85000E06C401C14
:104E6000E064B8F1010F3BD1A06A08B9012000E06D
:104E7000002050B900BF502080F31188BFF34F8F3E
:104E8000BFF36F8F00BF00BFFEE718480068A8B9E6
:104E9000201DFFF759FE94F82C100120884014497A
:104EA0000968084312490860E16A01EB8101114A6F
:104EB00002EB8100211DFFF791FE04E004F11801CF
:104EC0000D48FFF78BFE0D49E06A0968C96A884200
:104ED00006D917B10120386002E0012008490860B6
:104EE00000BF86F3118800BFBDE8F08128010020D3
:104EF00008010020FC050020B0060020F000002082
:104F00001401002010B586B000200590049003AA7B
:104F100004A905A8FFF72CFE0022DDE904101346C2
:104F2000CDE9002102901CA11D48039A00F090F9E0
:104F30001C4908600846006808B1012400E000240C
:104F4000012C15D100BF502080F31188BFF34F8F83
:104F5000BFF36F8F00BF4FF0FF301349086001208F
:104F60001249086000201249086000F071F810E052
:104F7000601C08B1012000E0002050B900BF5020A3
:104F800080F31188BFF34F8FBFF36F8F00BF00BF57
:104F9000FEE706B010BD000049444C45000000008B
:104FA0007546000824010020200100200C0100208B
:104FB0000401002002480068401C01490860704755
:104FC000280100201D48006818B101201C49086014
:104FD00032E000201A4908601A480068B0FA80F0F0
:104FE000C0F11F0101EB8100174A52F8200008B1FF
:104FF000012000E0002050B900BF502080F311884C
:10500000BFF34F8FBFF36F8F00BF00BFFEE701EB11
:1050100081020D4B03EB820042685268426000F14E
:1050200008024368934202D1426852684260426873
:10503000D268064B1A6000BF7047000028010020AC
:105040001401002008010020FC050020F0000020D1
:105050001CB5524800685249884201D0012000E046
:10506000002050B900BF502080F31188BFF34F8F4C
:10507000BFF36F8F00BF00BFFEE748480068484994
:10508000491E884201D0012000E0002050B900BF35
:10509000502080F31188BFF34F8FBFF36F8F00BF95
:1050A00000BFFEE73F49084600780190FF200A460E
:1050B00010700846007800909DF8000000F0F000A5
:1050C0009DF80020904201D1012000E0002050B95D
:1050D00000BF502080F31188BFF34F8FBFF36F8F55
:1050E00000BF00BFFEE79DF8000000F050002E4A10
:1050F000107007202D4A106009E02C480068401EFF
:105100002A4A10609DF800004006000E00909DF8AD
:10511000000000F080008028EFD024480068C0F133
:105120000700042801D1012000E0002050B900BF91
:10513000502080F31188BFF34F8FBFF36F8F00BFF4
:1051400000BFFEE7194800680002184A10601046C8
:10515000008800F4E0601060124A019810700F4857
:105160002030006840F470000C4920310860084687
:10517000006840F070400860FFF7CEFD00200C4949
:105180000860FBF795F80B48006840F0404009497B
:105190000860FBF779F800201CBD000000ED00E07E
:1051A00071C20F4100E400E0480100204C010020E2
:1051B0004401002034EF00E010B500BF502080F320
:1051C0001188BFF34F8FBFF36F8F00BF00F0FEF861
:1051D00018B14FF080500449086000BF002080F3F0
:1051E000118800BF10BD000004ED00E02DE9FF4F65
:1051F00085B0804689461746DDE912ABB800FFF757
:1052000095FB064656B15420FFF790FB04460CB1BF
:10521000266304E03046FFF735FD00E000248CB142
:10522000002084F85100CDE900ABCDE902403A46B8
:1052300049464046089BFFF731FA2046FFF736F90A
:10524000012501E04FF0FF35284609B0BDE8F08F99
:105250002DE9F04F85B00746884691469A46DDE92C
:105260000EB6109C0EB1012000E0002050B900BF26
:10527000502080F31188BFF34F8FBFF36F8F00BFB3
:1052800000BFFEE70CB1012000E0002050B900BFD4
:10529000502080F31188BFF34F8FBFF36F8F00BF93
:1052A00000BFFEE7542003900398542801D1012049
:1052B00000E0002050B900BF502080F31188BFF3F8
:1052C0004F8FBFF36F8F00BF00BFFEE7B4B1AEB129
:1052D00025462C462E63022085F85100002004A9A3
:1052E00053464A46CDE900B1CDE902504146384621
:1052F000FFF7D4F92846FFF7D9F801E00020049021
:10530000049805B0BDE8F08F70B506460725304615
:10531000FBF7A1F8102801D2012000E0002050B9CD
:1053200000BF502080F31188BFF34F8FBFF36F8F02
:1053300000BF00BFFEE7FFF73DFE00BF6D1E05EB9F
:105340008501154A02EB81003146FFF77FFA0446DA
:1053500004B101E0002DF1D100BF2CB931460F4856
:105360000068FFF773FA04462CB931460C48006810
:10537000FFF76CFA044624B931460A48FFF766FA8B
:10538000044624B931460848FFF760FA044600F0A5
:10539000C1F8204670BD0000FC050020F40000208C
:1053A000F8000020D8060020C4060020054909683E
:1053B00009B9012005E00449096809B9022000E0A3
:1053C000002070470C010020280100202DE9F04149
:1053D0004FF0000844480068002877D1434800682F
:1053E000451C4248056015BB41480068006808B983
:1053F000012000E0002050B900BF502080F3118848
:10540000BFF34F8FBFF36F8F00BF00BFFEE7384879
:1054100007683848006836490860364807603648EB
:105420000068401C34490860FFF7F6F900BF3348B4
:10543000006885423CD300BF2D480068006808B969
:10544000012000E0002020B14FF0FF302B49086020
:105450002DE027480068C068C4686668B54202D27B
:105460002648066023E0201DFFF76EFBA06A18B1F6
:1054700004F11800FFF768FB94F82C100120884015
:105480001F49096808431E490860E16A01EB810170
:105490001C4A02EB8100211DFFF7A0FB1A49E06ABC
:1054A0000968C96A8842C7D34FF00108C4E700BF42
:1054B00015480068C06A00EB8000124951F82000CE
:1054C000012801D94FF0010805E0FFE70F48006807
:1054D000401C0E4908600E48006808B14FF00108F2
:1054E0004046BDE8F08100002801002004010020B2
:1054F000F4000020F8000020180100202001002006
:1055000008010020FC050020F00000201001002010
:105510001401002070B5002400263648006850B9F8
:1055200000BF502080F31188BFF34F8FBFF36F8F00
:1055300000BF00BFFEE7FFF75DFB2E480068401E7E
:105540002C4908600846006800284FD12A480068A6
:1055500000284BD024E02948C068C46804F1180032
:10556000FFF7F2FA201DFFF7EFFA94F82C10012054
:10557000884023490968084321490860E16A01EB32
:105580008101204A02EB8100211DFFF727FB1E4904
:10559000E06A0968C96A884202D301201B49086091
:1055A0001648006808B9012000E000200028D2D089
:1055B0000CB1FFF731F91648056865B100BFFFF778
:1055C00005FF10B10120114908606D1E002DF6D1B4
:1055D00000200F4908600D48006838B101263007E7
:1055E0000C490860BFF34F8FBFF36F8FFFF72CFBA1
:1055F000304670BD2801002000010020B0060020C8
:1056000008010020FC050020F0000020140100200B
:105610001001002004ED00E021F00042A2F16052F0
:10562000B2F5801F01F0004328BFD2F17F6C0BD987
:105630005FEA001C43EAC20242EB507018BF704799
:1056400028BF20F001007047B2F5801FBCBF18468C
:1056500070474FEA410C1CF5001F02D2084600F0CB
:1056600013BB70B500F05CF900000089FFF7F6BFCE
:105670004FF00040A0F580007047000010B591EA9F
:10568000030F48BF83F0004300F1A681841A71EB39
:10569000030C05D2121943EB0C03001B61EB0C0148
:1056A000DFF824E14FEA1154A4EB135C1EEA430F28
:1056B00018BF9EEA445F73D023EA0E03DCF1200E8C
:1056C00021EA045143F4801332D322FA0CFE10EB8A
:1056D0000E0023FA0CFE41EB0E01CCF1200E03FA72
:1056E0000EFE10EB0E0051F10001B1F5801FCCF160
:1056F000200E32D201EB045112FA0EF2BDE8104036
:1057000058BF7047401C38BF5FEA420218BF70475D
:10571000002814BF20F0010041F100014FEA4103CD
:1057200013F5001F38BF7047A1F1C04100F046B922
:10573000012A43EB0302ACF1200CDCF11F0E32BF57
:105740004FF0000E23FA0CF310EB030041EB045171
:10575000B4EB115FD0D0A1EB045101F580114908E1
:105760005FEA300001EB04510ED350F1000038BF66
:1057700012FA0EFE08D1BDE81040C9E7401C38BF40
:105780005FEA4202CAD1C3E7BDE810404FEA4103D5
:1057900013F5001F38BF7047A1F1C04100F00EB9EA
:1057A0009EEA445F08D011EA5E0FBDE8104004BFD6
:1057B00001F0004100207047BDE8104070B500F0D6
:1057C000AFF800BF64FBBE3E0000E0FFDFF848C159
:1057D00070B51CEA111E1EBF1CEA13159EEA0C0FC1
:1057E00095EA0C0F00F06F8081EA030423EA4C1362
:1057F0004EEAD47E21EA4C1141F4801143F4801327
:10580000AE44A1FB024CA0FB0365AEF17F7E3619CE
:1058100055EB0C05A1FB034C4CF10003A0FB021C53
:1058200016EB0C06654153F10003094218BF46F020
:10583000010613F4007F0BD14FEA03314FEA053024
:10584000340341EA155140EA16506FF003020AE0B2
:105850004FEAC3214FEAC520F40241EA555140EA1C
:1058600056506FF0020202EB2E4201EB025585EA20
:10587000CE710AD05FEA440C18BF24F0004450F106
:10588000000041F1000120EAD47040F2FE7C624544
:1058900000D270BDA84214BF4FF080444FF0404486
:1058A000002E08BF0024BEF1806FA8BFA1F1C04147
:1058B000BDE8704080F282804FF0000001F1C041ED
:1058C00001F0004170479EEA0C0F0CEA131518BF57
:1058D00095EA0C0F06D04FF0000081EA030E0EF09F
:1058E000004170BD00F01CF88900013E00F007B8CF
:1058F00000F009B84FEA430C5FEA5C5C08D081EA2B
:10590000030100F05BB84FEA410C5FEA5C5CF6D142
:105910004FF00000014970470000FF070000F87FCA
:105920000EF1020E2EF0030E5EF8046B364205D423
:10593000012A43EB030515F5001F12D8012841EB9E
:10594000010C1CF5001F0CD80ED14FEAD17C15F5C7
:10595000001F0CEB4C0C0CF1020C08BF4CEBD37C81
:1059600004E04FF0080C01E04FEAD37C0CEB4C054F
:1059700026FA05F606F00706B6F1040C06D20EEB81
:10598000860CBDE870404CF0010C6047DFE80CF07D
:10599000090B02024FF000414FF00000A1F5002179
:1059A00070BD19461046012851EB010418BFD4F50B
:1059B000001484BF002001F0004170BD0808A0F56C
:1059C00000114FEA3101704710B591EA030F48BF4B
:1059D00083F000433FF55AAE841A71EB030C07D2F3
:1059E00012198CF0004C43EB0C03001B61EB0C0113
:1059F000DFF8A4E14FEA1154A4EB135C1EEA430F55
:105A000018BF9EEA445F00F0B08023EA6E03524262
:105A100021EA0451C3EB6E0338BF5B1EDCF1200E9C
:105A200025D322FA0CFE10EB0E0043FA0CFE41EBDC
:105A30000E01CCF1200E03FA0EFE10EB0E0051F118
:105A40000001CCF1200E29D412FA0EF201EB045120
:105A5000BDE8104058BF7047401C1CBFB2F1004F5A
:105A6000704700280CBF491C20F00100704712EB62
:105A7000020E43EB030218BF4FF0010E4EEA420242
:105A8000ACF1200CDCF11E0E54D943FA0CFE10EBE5
:105A90000E0051F1FF31CCF11E0ED5D50EF1010EE5
:105AA00012FA0EFE404141EB010101EB445C5FEA5A
:105AB0005C5C10D910EBDE7001EB045138BFBEF115
:105AC000004FBDE8104018BF704700280CBF491CAC
:105AD00020F00100704730D24FEAD42C11F50011AC
